{
  "_format": "hh-sol-artifact-1",
  "contractName": "LiquidityManager",
  "sourceName": "contracts/LiquidityManager.sol",
  "abi": [
    {
      "inputs": [
        {
          "internalType": "address",
          "name": "_router",
          "type": "address"
        }
      ],
      "stateMutability": "nonpayable",
      "type": "constructor"
    },
    {
      "inputs": [
        {
          "internalType": "address",
          "name": "owner",
          "type": "address"
        }
      ],
      "name": "OwnableInvalidOwner",
      "type": "error"
    },
    {
      "inputs": [
        {
          "internalType": "address",
          "name": "account",
          "type": "address"
        }
      ],
      "name": "OwnableUnauthorizedAccount",
      "type": "error"
    },
    {
      "anonymous": false,
      "inputs": [
        {
          "indexed": true,
          "internalType": "address",
          "name": "tokenAddress",
          "type": "address"
        },
        {
          "indexed": true,
          "internalType": "address",
          "name": "lpPair",
          "type": "address"
        },
        {
          "indexed": false,
          "internalType": "uint256",
          "name": "amount",
          "type": "uint256"
        },
        {
          "indexed": false,
          "internalType": "uint256",
          "name": "unlockDate",
          "type": "uint256"
        },
        {
          "indexed": false,
          "internalType": "uint256",
          "name": "lockId",
          "type": "uint256"
        }
      ],
      "name": "LPLockedWithUnicrypt",
      "type": "event"
    },
    {
      "anonymous": false,
      "inputs": [
        {
          "indexed": true,
          "internalType": "address",
          "name": "tokenAddress",
          "type": "address"
        },
        {
          "indexed": false,
          "internalType": "uint256",
          "name": "lpAmount",
          "type": "uint256"
        }
      ],
      "name": "LPTokensBurned",
      "type": "event"
    },
    {
      "anonymous": false,
      "inputs": [
        {
          "indexed": true,
          "internalType": "address",
          "name": "tokenAddress",
          "type": "address"
        },
        {
          "indexed": false,
          "internalType": "uint256",
          "name": "lpAmount",
          "type": "uint256"
        },
        {
          "indexed": false,
          "internalType": "uint256",
          "name": "unlockTime",
          "type": "uint256"
        }
      ],
      "name": "LPTokensLocked",
      "type": "event"
    },
    {
      "anonymous": false,
      "inputs": [
        {
          "indexed": true,
          "internalType": "address",
          "name": "tokenAddress",
          "type": "address"
        },
        {
          "indexed": false,
          "internalType": "uint256",
          "name": "lpAmount",
          "type": "uint256"
        }
      ],
      "name": "LPTokensUnlocked",
      "type": "event"
    },
    {
      "anonymous": false,
      "inputs": [
        {
          "indexed": true,
          "internalType": "address",
          "name": "tokenAddress",
          "type": "address"
        },
        {
          "indexed": true,
          "internalType": "address",
          "name": "lpPair",
          "type": "address"
        },
        {
          "indexed": false,
          "internalType": "uint256",
          "name": "amount",
          "type": "uint256"
        }
      ],
      "name": "LPUnlockedFromUnicrypt",
      "type": "event"
    },
    {
      "anonymous": false,
      "inputs": [
        {
          "indexed": false,
          "internalType": "uint256",
          "name": "amountA",
          "type": "uint256"
        },
        {
          "indexed": false,
          "internalType": "uint256",
          "name": "amountB",
          "type": "uint256"
        }
      ],
      "name": "LiquidityRemoved",
      "type": "event"
    },
    {
      "anonymous": false,
      "inputs": [
        {
          "indexed": true,
          "internalType": "address",
          "name": "previousOwner",
          "type": "address"
        },
        {
          "indexed": true,
          "internalType": "address",
          "name": "newOwner",
          "type": "address"
        }
      ],
      "name": "OwnershipTransferred",
      "type": "event"
    },
    {
      "inputs": [],
      "name": "DEAD_ADDRESS",
      "outputs": [
        {
          "internalType": "address",
          "name": "",
          "type": "address"
        }
      ],
      "stateMutability": "view",
      "type": "function"
    },
    {
      "inputs": [],
      "name": "LOCK_1_MONTH",
      "outputs": [
        {
          "internalType": "uint256",
          "name": "",
          "type": "uint256"
        }
      ],
      "stateMutability": "view",
      "type": "function"
    },
    {
      "inputs": [],
      "name": "LOCK_6_MONTHS",
      "outputs": [
        {
          "internalType": "uint256",
          "name": "",
          "type": "uint256"
        }
      ],
      "stateMutability": "view",
      "type": "function"
    },
    {
      "inputs": [],
      "name": "admin",
      "outputs": [
        {
          "internalType": "address",
          "name": "",
          "type": "address"
        }
      ],
      "stateMutability": "view",
      "type": "function"
    },
    {
      "inputs": [
        {
          "internalType": "address",
          "name": "tokenAddress",
          "type": "address"
        }
      ],
      "name": "getLPLockInfo",
      "outputs": [
        {
          "internalType": "bool",
          "name": "isUnicryptLocked",
          "type": "bool"
        },
        {
          "internalType": "uint256",
          "name": "unicryptUnlockDate",
          "type": "uint256"
        },
        {
          "internalType": "uint256",
          "name": "unicryptLockAmount",
          "type": "uint256"
        },
        {
          "internalType": "address",
          "name": "lockOwner",
          "type": "address"
        }
      ],
      "stateMutability": "view",
      "type": "function"
    },
    {
      "inputs": [
        {
          "internalType": "address",
          "name": "tokenAddress",
          "type": "address"
        },
        {
          "internalType": "address",
          "name": "lpPair",
          "type": "address"
        },
        {
          "internalType": "address",
          "name": "dev",
          "type": "address"
        },
        {
          "internalType": "uint8",
          "name": "lpManagementOption",
          "type": "uint8"
        }
      ],
      "name": "handleLPManagement",
      "outputs": [],
      "stateMutability": "nonpayable",
      "type": "function"
    },
    {
      "inputs": [
        {
          "internalType": "address",
          "name": "",
          "type": "address"
        }
      ],
      "name": "lpLockInfo",
      "outputs": [
        {
          "internalType": "bool",
          "name": "isLocked",
          "type": "bool"
        },
        {
          "internalType": "uint256",
          "name": "lockId",
          "type": "uint256"
        },
        {
          "internalType": "uint256",
          "name": "lockIndex",
          "type": "uint256"
        },
        {
          "internalType": "uint256",
          "name": "lockAmount",
          "type": "uint256"
        },
        {
          "internalType": "uint256",
          "name": "lockDate",
          "type": "uint256"
        },
        {
          "internalType": "uint256",
          "name": "unlockDate",
          "type": "uint256"
        },
        {
          "internalType": "address",
          "name": "lockOwner",
          "type": "address"
        }
      ],
      "stateMutability": "view",
      "type": "function"
    },
    {
      "inputs": [],
      "name": "owner",
      "outputs": [
        {
          "internalType": "address",
          "name": "",
          "type": "address"
        }
      ],
      "stateMutability": "view",
      "type": "function"
    },
    {
      "inputs": [
        {
          "internalType": "address",
          "name": "tokenA",
          "type": "address"
        },
        {
          "internalType": "address",
          "name": "tokenB",
          "type": "address"
        }
      ],
      "name": "removeLiquidity",
      "outputs": [
        {
          "internalType": "uint256",
          "name": "",
          "type": "uint256"
        },
        {
          "internalType": "uint256",
          "name": "",
          "type": "uint256"
        }
      ],
      "stateMutability": "nonpayable",
      "type": "function"
    },
    {
      "inputs": [],
      "name": "renounceOwnership",
      "outputs": [],
      "stateMutability": "nonpayable",
      "type": "function"
    },
    {
      "inputs": [],
      "name": "router",
      "outputs": [
        {
          "internalType": "contract IUniswapV2Router02",
          "name": "",
          "type": "address"
        }
      ],
      "stateMutability": "view",
      "type": "function"
    },
    {
      "inputs": [
        {
          "internalType": "address",
          "name": "_unicryptLocker",
          "type": "address"
        }
      ],
      "name": "setUnicryptLocker",
      "outputs": [],
      "stateMutability": "nonpayable",
      "type": "function"
    },
    {
      "inputs": [
        {
          "internalType": "address",
          "name": "newOwner",
          "type": "address"
        }
      ],
      "name": "transferOwnership",
      "outputs": [],
      "stateMutability": "nonpayable",
      "type": "function"
    },
    {
      "inputs": [],
      "name": "unicryptLocker",
      "outputs": [
        {
          "internalType": "contract IUnicryptV2Locker",
          "name": "",
          "type": "address"
        }
      ],
      "stateMutability": "view",
      "type": "function"
    },
    {
      "inputs": [
        {
          "internalType": "address",
          "name": "tokenAddress",
          "type": "address"
        },
        {
          "internalType": "address",
          "name": "lpPair",
          "type": "address"
        },
        {
          "internalType": "address",
          "name": "",
          "type": "address"
        }
      ],
      "name": "unlockLP",
      "outputs": [],
      "stateMutability": "nonpayable",
      "type": "function"
    },
    {
      "inputs": [
        {
          "internalType": "uint256",
          "name": "amount",
          "type": "uint256"
        }
      ],
      "name": "withdrawETH",
      "outputs": [],
      "stateMutability": "nonpayable",
      "type": "function"
    },
    {
      "inputs": [
        {
          "internalType": "address",
          "name": "token",
          "type": "address"
        },
        {
          "internalType": "uint256",
          "name": "amount",
          "type": "uint256"
        }
      ],
      "name": "withdrawToken",
      "outputs": [],
      "stateMutability": "nonpayable",
      "type": "function"
    },
    {
      "stateMutability": "payable",
      "type": "receive"
    }
  ],
  "bytecode": "0x608060405234801561001057600080fd5b506040516115db3803806115db83398101604081905261002f916100dd565b338061005557604051631e4fbdf760e01b81526000600482015260240160405180910390fd5b61005e8161008d565b50600180546001600160a01b039092166001600160a01b0319928316179055600480549091163317905561010d565b600080546001600160a01b038381166001600160a01b0319831681178455604051919092169283917f8be0079c531659141344cd1fd0a4f28419497f9722a3daafe3b4186f6b6457e09190a35050565b6000602082840312156100ef57600080fd5b81516001600160a01b038116811461010657600080fd5b9392505050565b6114bf8061011c6000396000f3fe6080604052600436106100d25760003560e01c80630373e7cd146100de57806303d9534f146101145780630e6cf407146101365780631e317e23146101565780634e6fd6c414610176578063715018a61461018c578063770964db146101a15780638da5cb5b146101c65780639cf38f7c146101db5780639e281a9814610210578063c0a9c35d14610230578063ce89558a14610247578063df149304146102c8578063f14210a61461036e578063f2fde38b1461038e578063f851a440146103ae578063f887ea40146103ce57600080fd5b366100d957005b600080fd5b3480156100ea57600080fd5b506002546100fe906001600160a01b031681565b60405161010b9190611129565b60405180910390f35b34801561012057600080fd5b5061013461012f366004611152565b6103ee565b005b34801561014257600080fd5b5061013461015136600461119d565b6104e5565b34801561016257600080fd5b506101346101713660046111ff565b6106f4565b34801561018257600080fd5b506100fe61dead81565b34801561019857600080fd5b50610134610763565b3480156101ad57600080fd5b506101b862278d0081565b60405190815260200161010b565b3480156101d257600080fd5b506100fe610777565b3480156101e757600080fd5b506101fb6101f6366004611223565b610786565b6040805192835260208301919091520161010b565b34801561021c57600080fd5b5061013461022b36600461125c565b610aa0565b34801561023c57600080fd5b506101b862ed4e0081565b34801561025357600080fd5b5061029d6102623660046111ff565b6001600160a01b038082166000908152600360208190526040909120805460058201549282015460069092015460ff90911693169193509193565b6040805194151585526020850193909352918301526001600160a01b0316606082015260800161010b565b3480156102d457600080fd5b5061032e6102e33660046111ff565b6003602081905260009182526040909120805460018201546002830154938301546004840154600585015460069095015460ff9094169592949293919290916001600160a01b031687565b6040805197151588526020880196909652948601939093526060850191909152608084015260a08301526001600160a01b031660c082015260e00161010b565b34801561037a57600080fd5b50610134610389366004611288565b610bf7565b34801561039a57600080fd5b506101346103a93660046111ff565b610d02565b3480156103ba57600080fd5b506004546100fe906001600160a01b031681565b3480156103da57600080fd5b506001546100fe906001600160a01b031681565b6103f6610777565b6001600160a01b0316336001600160a01b0316148061041f57506004546001600160a01b031633145b6104445760405162461bcd60e51b815260040161043b906112a1565b60405180910390fd5b6001600160a01b0383166000908152600360205260409020805460ff16156104df576002546001600160a01b031661048e5760405162461bcd60e51b815260040161043b906112cd565b805460ff1916815560038101546040519081526001600160a01b0384811691908616907f1c74907913a33914b63c38d93c579442dadbacf20de4f3f840fa63e96a94f69e9060200160405180910390a35b50505050565b6104ed610777565b6001600160a01b0316336001600160a01b0316148061051657506004546001600160a01b031633145b6105325760405162461bcd60e51b815260040161043b906112a1565b6040516370a0823160e01b81526000906001600160a01b038516906370a0823190610561903090600401611129565b602060405180830381865afa15801561057e573d6000803e3d6000fd5b505050506040513d601f19601f820116820180604052508101906105a291906112f0565b9050806000036105b257506104df565b8160ff166000036106795760405163a9059cbb60e01b81526001600160a01b0385169063a9059cbb906105ed9061dead908590600401611309565b6020604051808303816000875af115801561060c573d6000803e3d6000fd5b505050506040513d601f19601f820116820180604052508101906106309190611322565b50846001600160a01b03167fe13d296d0b3f1b2107082ed86bbeb47413bc2e2b753bbf64e0804e457339e95c8260405161066c91815260200190565b60405180910390a26106ed565b8160ff16600103610699576106948585838662278d00610d40565b6106ed565b8160ff166002036106b4576106948585838662ed4e00610d40565b60405162461bcd60e51b815260206004820152600e60248201526d24b73b30b634b21037b83a34b7b760911b604482015260640161043b565b5050505050565b6106fc610777565b6001600160a01b0316336001600160a01b0316148061072557506004546001600160a01b031633145b6107415760405162461bcd60e51b815260040161043b906112a1565b600280546001600160a01b0319166001600160a01b0392909216919091179055565b61076b6110a7565b61077560006110d9565b565b6000546001600160a01b031690565b600080610791610777565b6001600160a01b0316336001600160a01b031614806107ba57506004546001600160a01b031633145b6107d65760405162461bcd60e51b815260040161043b906112a1565b6001546040805163c45a015560e01b815290516000926001600160a01b03169163c45a01559160048083019260209291908290030181865afa158015610820573d6000803e3d6000fd5b505050506040513d601f19601f820116820180604052508101906108449190611344565b6001600160a01b031663e6a4390586866040518363ffffffff1660e01b8152600401610871929190611361565b602060405180830381865afa15801561088e573d6000803e3d6000fd5b505050506040513d601f19601f820116820180604052508101906108b29190611344565b90506000816001600160a01b03166370a08231306040518263ffffffff1660e01b81526004016108e29190611129565b602060405180830381865afa1580156108ff573d6000803e3d6000fd5b505050506040513d601f19601f8201168201806040525081019061092391906112f0565b60015460405163095ea7b360e01b81529192506001600160a01b038085169263095ea7b3926109589216908590600401611309565b6020604051808303816000875af1158015610977573d6000803e3d6000fd5b505050506040513d601f19601f8201168201806040525081019061099b9190611322565b5060015460009081906001600160a01b03166302751cec89858480306109c3426101f4611391565b60405160e088901b6001600160e01b03191681526001600160a01b039687166004820152602481019590955260448501939093526064840191909152909216608482015260a481019190915260c40160408051808303816000875af1158015610a30573d6000803e3d6000fd5b505050506040513d601f19601f82011682018060405250810190610a5491906113aa565b60408051838152602081018390529294509092507f6f0f96292ae0038c04f9b6bab30f185d9ca02c471d0983f563f2a4f674aef137910160405180910390a19097909650945050505050565b610aa8610777565b6001600160a01b0316336001600160a01b03161480610ad157506004546001600160a01b031633145b610aed5760405162461bcd60e51b815260040161043b906112a1565b6040516370a0823160e01b81526000906001600160a01b038416906370a0823190610b1c903090600401611129565b602060405180830381865afa158015610b39573d6000803e3d6000fd5b505050506040513d601f19601f82011682018060405250810190610b5d91906112f0565b905080821115610b7f5760405162461bcd60e51b815260040161043b906113ce565b826001600160a01b031663a9059cbb610b96610777565b846040518363ffffffff1660e01b8152600401610bb4929190611309565b6020604051808303816000875af1158015610bd3573d6000803e3d6000fd5b505050506040513d601f19601f820116820180604052508101906104df9190611322565b610bff610777565b6001600160a01b0316336001600160a01b03161480610c2857506004546001600160a01b031633145b610c445760405162461bcd60e51b815260040161043b906112a1565b47811115610c645760405162461bcd60e51b815260040161043b906113ce565b6000610c6e610777565b6001600160a01b03168260405160006040518083038185875af1925050503d8060008114610cb8576040519150601f19603f3d011682016040523d82523d6000602084013e610cbd565b606091505b5050905080610cfe5760405162461bcd60e51b815260206004820152600d60248201526c151c985b9cd9995c8819985a5b609a1b604482015260640161043b565b5050565b610d0a6110a7565b6001600160a01b038116610d34576000604051631e4fbdf760e01b815260040161043b9190611129565b610d3d816110d9565b50565b6002546001600160a01b0316610d685760405162461bcd60e51b815260040161043b906112cd565b6000610d748242611391565b60025460405163095ea7b360e01b81529192506001600160a01b038088169263095ea7b392610da99216908890600401611309565b6020604051808303816000875af1158015610dc8573d6000803e3d6000fd5b505050506040513d601f19601f82011682018060405250810190610dec9190611322565b50600254604080516390e1a00360e01b815290516000926001600160a01b0316916390e1a003916004808301926101209291908290030181865afa158015610e38573d6000803e3d6000fd5b505050506040513d601f19601f82011682018060405250810190610e5c91906113f3565b505060025460405163457a0b7b60e11b81526001600160a01b038f81166004830152602482018f9052604482018c905260006064830152600160848301528d811660a4830152989950971696638af416f6965088955060c4019350610ec092505050565b6000604051808303818588803b158015610ed957600080fd5b505af193505050508015610eeb575060015b610f235760405162461bcd60e51b8152602060048201526009602482015268131bd8dac819985a5b60ba1b604482015260640161043b565b60025460405163a69d9c4f60e01b81526000916001600160a01b03169063a69d9c4f90610f569088908b90600401611361565b602060405180830381865afa158015610f73573d6000803e3d6000fd5b505050506040513d601f19601f82011682018060405250810190610f9791906112f0565b90506040518060e0016040528060011515815260200160008152602001600183610fc19190611476565b815260208082018990524260408084019190915260608084018890526001600160a01b038a81166080958601528d8116600081815260038087528582208951815460ff1916901515178155898801516001820155898701516002820155898601519181019190915596880151600488015560a0880151600588015560c090970151600690960180546001600160a01b0319169683169690961790955582518c8152938401899052918301949094528a16927f238a7cc4bf27730aeec90eb90b7eb44de11c73a80f154d6f1cd4a081cf2e3622910160405180910390a35050505050505050565b336110b0610777565b6001600160a01b031614610775573360405163118cdaa760e01b815260040161043b9190611129565b600080546001600160a01b038381166001600160a01b0319831681178455604051919092169283917f8be0079c531659141344cd1fd0a4f28419497f9722a3daafe3b4186f6b6457e09190a35050565b6001600160a01b0391909116815260200190565b6001600160a01b0381168114610d3d57600080fd5b60008060006060848603121561116757600080fd5b83356111728161113d565b925060208401356111828161113d565b915060408401356111928161113d565b809150509250925092565b600080600080608085870312156111b357600080fd5b84356111be8161113d565b935060208501356111ce8161113d565b925060408501356111de8161113d565b9150606085013560ff811681146111f457600080fd5b939692955090935050565b60006020828403121561121157600080fd5b813561121c8161113d565b9392505050565b6000806040838503121561123657600080fd5b82356112418161113d565b915060208301356112518161113d565b809150509250929050565b6000806040838503121561126f57600080fd5b823561127a8161113d565b946020939093013593505050565b60006020828403121561129a57600080fd5b5035919050565b6020808252601290820152712737ba1037bbb732b91037b91030b236b4b760711b604082015260600190565b6020808252600990820152682737903637b1b5b2b960b91b604082015260600190565b60006020828403121561130257600080fd5b5051919050565b6001600160a01b03929092168252602082015260400190565b60006020828403121561133457600080fd5b8151801515811461121c57600080fd5b60006020828403121561135657600080fd5b815161121c8161113d565b6001600160a01b0392831681529116602082015260400190565b634e487b7160e01b600052601160045260246000fd5b808201808211156113a4576113a461137b565b92915050565b600080604083850312156113bd57600080fd5b505080516020909101519092909150565b6020808252600b908201526a125b9d985b1a5908185b5d60aa1b604082015260600190565b60008060008060008060008060006101208a8c03121561141257600080fd5b895160208b01519099506114258161113d565b60408b015160608c015160808d015160a08e015160c08f0151949c50929a50909850965094506114548161113d565b60e08b0151610100909b0151999c989b50969995989497939695949392505050565b818103818111156113a4576113a461137b56fea2646970667358221220a6aace7ebb080822e3a23c984c2795530f4da1e895b454296c1001143aa0281764736f6c634300081e0033",
  "linkReferences": {},
  "deployedLinkReferences": {}
}