{
  "_format": "hh-sol-artifact-1",
  "contractName": "VantablackDeployer",
  "sourceName": "contracts/VantablackDeployer.sol",
  "abi": [
    {
      "inputs": [],
      "stateMutability": "nonpayable",
      "type": "constructor"
    },
    {
      "inputs": [],
      "name": "InvalidInitialization",
      "type": "error"
    },
    {
      "inputs": [],
      "name": "NotInitializing",
      "type": "error"
    },
    {
      "inputs": [
        {
          "internalType": "address",
          "name": "owner",
          "type": "address"
        }
      ],
      "name": "OwnableInvalidOwner",
      "type": "error"
    },
    {
      "inputs": [
        {
          "internalType": "address",
          "name": "account",
          "type": "address"
        }
      ],
      "name": "OwnableUnauthorizedAccount",
      "type": "error"
    },
    {
      "inputs": [],
      "name": "ReentrancyGuardReentrantCall",
      "type": "error"
    },
    {
      "anonymous": false,
      "inputs": [
        {
          "indexed": true,
          "internalType": "address",
          "name": "dev",
          "type": "address"
        }
      ],
      "name": "DevRemovedFromWhitelist",
      "type": "event"
    },
    {
      "anonymous": false,
      "inputs": [
        {
          "indexed": true,
          "internalType": "address",
          "name": "dev",
          "type": "address"
        }
      ],
      "name": "DevWhitelisted",
      "type": "event"
    },
    {
      "anonymous": false,
      "inputs": [
        {
          "indexed": false,
          "internalType": "uint256",
          "name": "totalTaxSent",
          "type": "uint256"
        },
        {
          "indexed": false,
          "internalType": "address",
          "name": "newTreasuryAddress",
          "type": "address"
        },
        {
          "indexed": false,
          "internalType": "uint256",
          "name": "lpTokensTransferred",
          "type": "uint256"
        }
      ],
      "name": "HandoverExecuted",
      "type": "event"
    },
    {
      "anonymous": false,
      "inputs": [
        {
          "indexed": false,
          "internalType": "uint64",
          "name": "version",
          "type": "uint64"
        }
      ],
      "name": "Initialized",
      "type": "event"
    },
    {
      "anonymous": false,
      "inputs": [
        {
          "indexed": true,
          "internalType": "address",
          "name": "tokenAddress",
          "type": "address"
        },
        {
          "indexed": false,
          "internalType": "uint256",
          "name": "lpAmount",
          "type": "uint256"
        }
      ],
      "name": "LPTokensBurned",
      "type": "event"
    },
    {
      "anonymous": false,
      "inputs": [
        {
          "indexed": false,
          "internalType": "uint256",
          "name": "amountA",
          "type": "uint256"
        },
        {
          "indexed": false,
          "internalType": "uint256",
          "name": "amountB",
          "type": "uint256"
        }
      ],
      "name": "LiquidityRemoved",
      "type": "event"
    },
    {
      "anonymous": false,
      "inputs": [
        {
          "indexed": true,
          "internalType": "address",
          "name": "previousOwner",
          "type": "address"
        },
        {
          "indexed": true,
          "internalType": "address",
          "name": "newOwner",
          "type": "address"
        }
      ],
      "name": "OwnershipTransferred",
      "type": "event"
    },
    {
      "anonymous": false,
      "inputs": [
        {
          "indexed": false,
          "internalType": "uint256",
          "name": "totalTaxCollected",
          "type": "uint256"
        },
        {
          "indexed": false,
          "internalType": "uint256",
          "name": "devShare",
          "type": "uint256"
        },
        {
          "indexed": false,
          "internalType": "uint256",
          "name": "buybackShare",
          "type": "uint256"
        },
        {
          "indexed": false,
          "internalType": "uint256",
          "name": "remainingInFunding",
          "type": "uint256"
        }
      ],
      "name": "ProjectClosed",
      "type": "event"
    },
    {
      "inputs": [],
      "name": "DEAD_ADDRESS",
      "outputs": [
        {
          "internalType": "address",
          "name": "",
          "type": "address"
        }
      ],
      "stateMutability": "view",
      "type": "function"
    },
    {
      "inputs": [],
      "name": "MAX_FEE",
      "outputs": [
        {
          "internalType": "uint256",
          "name": "",
          "type": "uint256"
        }
      ],
      "stateMutability": "view",
      "type": "function"
    },
    {
      "inputs": [
        {
          "internalType": "address",
          "name": "dev",
          "type": "address"
        }
      ],
      "name": "addToWhitelist",
      "outputs": [],
      "stateMutability": "nonpayable",
      "type": "function"
    },
    {
      "inputs": [
        {
          "internalType": "address",
          "name": "tokenAddress",
          "type": "address"
        }
      ],
      "name": "closeProject",
      "outputs": [],
      "stateMutability": "nonpayable",
      "type": "function"
    },
    {
      "inputs": [
        {
          "internalType": "uint256[3]",
          "name": "amounts",
          "type": "uint256[3]"
        },
        {
          "internalType": "address[2]",
          "name": "addrs",
          "type": "address[2]"
        },
        {
          "internalType": "uint16[4]",
          "name": "percents",
          "type": "uint16[4]"
        },
        {
          "internalType": "bool[3]",
          "name": "flags",
          "type": "bool[3]"
        },
        {
          "internalType": "string[2]",
          "name": "metadata",
          "type": "string[2]"
        }
      ],
      "name": "deployToken",
      "outputs": [
        {
          "internalType": "uint256",
          "name": "",
          "type": "uint256"
        }
      ],
      "stateMutability": "payable",
      "type": "function"
    },
    {
      "inputs": [
        {
          "internalType": "uint256",
          "name": "",
          "type": "uint256"
        }
      ],
      "name": "deployedTokens",
      "outputs": [
        {
          "internalType": "address",
          "name": "tokenAddress",
          "type": "address"
        },
        {
          "internalType": "address",
          "name": "owner",
          "type": "address"
        },
        {
          "internalType": "address",
          "name": "dev",
          "type": "address"
        },
        {
          "internalType": "address",
          "name": "lpPair",
          "type": "address"
        },
        {
          "internalType": "bool",
          "name": "isProjectClosed",
          "type": "bool"
        },
        {
          "internalType": "bool",
          "name": "roiAchieved",
          "type": "bool"
        },
        {
          "internalType": "bool",
          "name": "burnLP",
          "type": "bool"
        },
        {
          "internalType": "bool",
          "name": "lockTokens",
          "type": "bool"
        },
        {
          "internalType": "uint256",
          "name": "lockDuration",
          "type": "uint256"
        },
        {
          "internalType": "uint256",
          "name": "projectTaxBalance",
          "type": "uint256"
        },
        {
          "internalType": "uint8",
          "name": "lpManagementOption",
          "type": "uint8"
        },
        {
          "internalType": "uint256",
          "name": "lpLockExpiry",
          "type": "uint256"
        }
      ],
      "stateMutability": "view",
      "type": "function"
    },
    {
      "inputs": [],
      "name": "deployedTokensCount",
      "outputs": [
        {
          "internalType": "uint256",
          "name": "",
          "type": "uint256"
        }
      ],
      "stateMutability": "view",
      "type": "function"
    },
    {
      "inputs": [
        {
          "internalType": "address",
          "name": "",
          "type": "address"
        }
      ],
      "name": "deployedTokensIds",
      "outputs": [
        {
          "internalType": "uint256",
          "name": "",
          "type": "uint256"
        }
      ],
      "stateMutability": "view",
      "type": "function"
    },
    {
      "inputs": [
        {
          "internalType": "uint256",
          "name": "ethAmount",
          "type": "uint256"
        },
        {
          "internalType": "uint256",
          "name": "ethLiquidityAmount",
          "type": "uint256"
        },
        {
          "internalType": "uint256",
          "name": "tokenLiquidityAmount",
          "type": "uint256"
        },
        {
          "internalType": "uint16",
          "name": "buyTax",
          "type": "uint16"
        }
      ],
      "name": "estimateFirstBuyTokens",
      "outputs": [
        {
          "internalType": "uint256",
          "name": "tokensReceived",
          "type": "uint256"
        },
        {
          "internalType": "uint256",
          "name": "taxAmount",
          "type": "uint256"
        }
      ],
      "stateMutability": "pure",
      "type": "function"
    },
    {
      "inputs": [],
      "name": "executeHandover",
      "outputs": [],
      "stateMutability": "nonpayable",
      "type": "function"
    },
    {
      "inputs": [],
      "name": "fundLiquidityPool",
      "outputs": [],
      "stateMutability": "payable",
      "type": "function"
    },
    {
      "inputs": [
        {
          "internalType": "uint256",
          "name": "amountIn",
          "type": "uint256"
        },
        {
          "internalType": "address",
          "name": "tokenAddress",
          "type": "address"
        }
      ],
      "name": "getAmountsOut",
      "outputs": [
        {
          "internalType": "uint256",
          "name": "",
          "type": "uint256"
        }
      ],
      "stateMutability": "view",
      "type": "function"
    },
    {
      "inputs": [
        {
          "internalType": "address",
          "name": "tokenAddress",
          "type": "address"
        }
      ],
      "name": "getLPLockInfo",
      "outputs": [
        {
          "internalType": "uint8",
          "name": "lpManagementOption",
          "type": "uint8"
        },
        {
          "internalType": "uint256",
          "name": "lpLockExpiry",
          "type": "uint256"
        },
        {
          "internalType": "uint256",
          "name": "lpBalance",
          "type": "uint256"
        },
        {
          "internalType": "bool",
          "name": "canUnlock",
          "type": "bool"
        },
        {
          "internalType": "bool",
          "name": "isUnicryptLocked",
          "type": "bool"
        },
        {
          "internalType": "uint256",
          "name": "unicryptUnlockDate",
          "type": "uint256"
        },
        {
          "internalType": "uint256",
          "name": "unicryptLockAmount",
          "type": "uint256"
        }
      ],
      "stateMutability": "view",
      "type": "function"
    },
    {
      "inputs": [
        {
          "internalType": "address",
          "name": "tokenAddress",
          "type": "address"
        }
      ],
      "name": "getProjectTaxBalance",
      "outputs": [
        {
          "internalType": "uint256",
          "name": "",
          "type": "uint256"
        }
      ],
      "stateMutability": "view",
      "type": "function"
    },
    {
      "inputs": [],
      "name": "initialize",
      "outputs": [],
      "stateMutability": "nonpayable",
      "type": "function"
    },
    {
      "inputs": [
        {
          "internalType": "address",
          "name": "",
          "type": "address"
        }
      ],
      "name": "isTokenDeployedByVantablack",
      "outputs": [
        {
          "internalType": "bool",
          "name": "",
          "type": "bool"
        }
      ],
      "stateMutability": "view",
      "type": "function"
    },
    {
      "inputs": [
        {
          "internalType": "address",
          "name": "dev",
          "type": "address"
        }
      ],
      "name": "isWhitelisted",
      "outputs": [
        {
          "internalType": "bool",
          "name": "",
          "type": "bool"
        }
      ],
      "stateMutability": "view",
      "type": "function"
    },
    {
      "inputs": [],
      "name": "liquidityManager",
      "outputs": [
        {
          "internalType": "contract LiquidityManager",
          "name": "",
          "type": "address"
        }
      ],
      "stateMutability": "view",
      "type": "function"
    },
    {
      "inputs": [],
      "name": "lpFundingAmount",
      "outputs": [
        {
          "internalType": "uint256",
          "name": "",
          "type": "uint256"
        }
      ],
      "stateMutability": "view",
      "type": "function"
    },
    {
      "inputs": [],
      "name": "lpFundingBalance",
      "outputs": [
        {
          "internalType": "uint256",
          "name": "",
          "type": "uint256"
        }
      ],
      "stateMutability": "view",
      "type": "function"
    },
    {
      "inputs": [],
      "name": "owner",
      "outputs": [
        {
          "internalType": "address",
          "name": "",
          "type": "address"
        }
      ],
      "stateMutability": "view",
      "type": "function"
    },
    {
      "inputs": [
        {
          "internalType": "address",
          "name": "dev",
          "type": "address"
        }
      ],
      "name": "removeFromWhitelist",
      "outputs": [],
      "stateMutability": "nonpayable",
      "type": "function"
    },
    {
      "inputs": [],
      "name": "renounceOwnership",
      "outputs": [],
      "stateMutability": "nonpayable",
      "type": "function"
    },
    {
      "inputs": [],
      "name": "router",
      "outputs": [
        {
          "internalType": "contract IUniswapV2Router02",
          "name": "",
          "type": "address"
        }
      ],
      "stateMutability": "view",
      "type": "function"
    },
    {
      "inputs": [
        {
          "internalType": "address",
          "name": "_liquidityManager",
          "type": "address"
        }
      ],
      "name": "setLiquidityManager",
      "outputs": [],
      "stateMutability": "nonpayable",
      "type": "function"
    },
    {
      "inputs": [
        {
          "internalType": "uint256",
          "name": "_amount",
          "type": "uint256"
        }
      ],
      "name": "setLpFundingAmount",
      "outputs": [],
      "stateMutability": "nonpayable",
      "type": "function"
    },
    {
      "inputs": [
        {
          "internalType": "address",
          "name": "_unicryptLocker",
          "type": "address"
        }
      ],
      "name": "setUnicryptLocker",
      "outputs": [],
      "stateMutability": "nonpayable",
      "type": "function"
    },
    {
      "inputs": [],
      "name": "totalTaxBalances",
      "outputs": [
        {
          "internalType": "uint256",
          "name": "",
          "type": "uint256"
        }
      ],
      "stateMutability": "view",
      "type": "function"
    },
    {
      "inputs": [
        {
          "internalType": "address",
          "name": "newOwner",
          "type": "address"
        }
      ],
      "name": "transferOwnership",
      "outputs": [],
      "stateMutability": "nonpayable",
      "type": "function"
    },
    {
      "inputs": [
        {
          "internalType": "address",
          "name": "tokenAddress",
          "type": "address"
        }
      ],
      "name": "unlockLP",
      "outputs": [],
      "stateMutability": "nonpayable",
      "type": "function"
    },
    {
      "inputs": [],
      "name": "updateDeployedTokenTaxBalance",
      "outputs": [],
      "stateMutability": "payable",
      "type": "function"
    },
    {
      "inputs": [
        {
          "internalType": "address",
          "name": "",
          "type": "address"
        }
      ],
      "name": "whitelistedDevs",
      "outputs": [
        {
          "internalType": "bool",
          "name": "",
          "type": "bool"
        }
      ],
      "stateMutability": "view",
      "type": "function"
    },
    {
      "inputs": [
        {
          "internalType": "uint256",
          "name": "amount",
          "type": "uint256"
        }
      ],
      "name": "withdrawEth",
      "outputs": [],
      "stateMutability": "nonpayable",
      "type": "function"
    },
    {
      "inputs": [
        {
          "internalType": "address",
          "name": "token",
          "type": "address"
        },
        {
          "internalType": "uint256",
          "name": "amount",
          "type": "uint256"
        }
      ],
      "name": "withdrawTokens",
      "outputs": [],
      "stateMutability": "nonpayable",
      "type": "function"
    },
    {
      "stateMutability": "payable",
      "type": "receive"
    }
  ],
  "bytecode": "0x6080604052348015600f57600080fd5b506016601a565b60ca565b7ff0c57e16840df040f15088dc2f81fe391c3923bec73e23a9662efc9c229c6a00805468010000000000000000900460ff161560695760405163f92ee8a960e01b815260040160405180910390fd5b80546001600160401b039081161460c75780546001600160401b0319166001600160401b0390811782556040519081527fc7f505b2f371ae2175ee4913f4499e1f2633a7b5936321eed1cdaeb6115181d29060200160405180910390a15b50565b615ebc806100d96000396000f3fe60806040526004361061018d5760003560e01c8063050f27e11461019957806306b091f9146101bf57806309b0710a146101e15780631e317e23146101f75780632fe2d6521461021757806333827438146102575780633af32abf146102845780633b50197d146102bd5780633b813100146102dd5780633c1624d4146102fd5780634c9b00411461031d5780634e6fd6c4146103525780636aaf7fe214610368578063715018a6146103705780637d74e315146103855780637d9d00cf146103a55780638129fc1c146103d55780638ab1d681146103ea5780638da5cb5b1461040a5780638e0b16971461041f57806390bff21014610427578063973cbbb014610454578063a217c37714610474578063a687473e14610494578063bc063e1a146104aa578063c311d049146104c0578063ce89558a146104e0578063d0f974e31461053b578063e107d9b714610551578063e43252d714610566578063ec81aadb14610586578063f2fde38b1461063c578063f69ae1be1461065c578063f887ea401461067257600080fd5b3661019457005b600080fd5b6101ac6101a7366004612185565b610692565b6040519081526020015b60405180910390f35b3480156101cb57600080fd5b506101df6101da366004612248565b610e78565b005b3480156101ed57600080fd5b506101ac60055481565b34801561020357600080fd5b506101df610212366004612274565b610fa7565b34801561022357600080fd5b50610247610232366004612274565b60036020526000908152604090205460ff1681565b60405190151581526020016101b6565b34801561026357600080fd5b50600954610277906001600160a01b031681565b6040516101b69190612298565b34801561029057600080fd5b5061024761029f366004612274565b6001600160a01b031660009081526008602052604090205460ff1690565b3480156102c957600080fd5b506101df6102d83660046122ac565b611014565b3480156102e957600080fd5b506101df6102f8366004612274565b611041565b34801561030957600080fd5b506101df610318366004612274565b6112f6565b34801561032957600080fd5b5061033d6103383660046122c5565b611320565b604080519283526020830191909152016101b6565b34801561035e57600080fd5b5061027761dead81565b6101df611382565b34801561037c57600080fd5b506101df6113ad565b34801561039157600080fd5b506101ac6103a0366004612304565b6113c1565b3480156103b157600080fd5b506102476103c0366004612274565b60086020526000908152604090205460ff1681565b3480156103e157600080fd5b506101df6114de565b3480156103f657600080fd5b506101df610405366004612274565b61161b565b34801561041657600080fd5b5061027761166c565b6101df611687565b34801561043357600080fd5b506101ac610442366004612274565b60016020526000908152604090205481565b34801561046057600080fd5b506101df61046f366004612274565b6116a8565b34801561048057600080fd5b506101ac61048f366004612274565b611778565b3480156104a057600080fd5b506101ac60075481565b3480156104b657600080fd5b506101ac6101f481565b3480156104cc57600080fd5b506101df6104db3660046122ac565b61178f565b3480156104ec57600080fd5b506105006104fb366004612274565b61183c565b6040805160ff909816885260208801969096529486019390935290151560608501521515608084015260a083015260c082015260e0016101b6565b34801561054757600080fd5b506101ac60065481565b34801561055d57600080fd5b506101df611974565b34801561057257600080fd5b506101df610581366004612274565b611adc565b34801561059257600080fd5b506106246105a13660046122ac565b6002602081905260009182526040909120805460018201549282015460038301546004840154600585015460068601546007909601546001600160a01b03958616978616969486169584169460ff600160a01b8604811695600160a81b8104821695600160b01b8204831695600160b81b9092048316949093919291909116908c565b6040516101b69c9b9a99989796959493929190612334565b34801561064857600080fd5b506101df610657366004612274565b611b30565b34801561066857600080fd5b506101ac60045481565b34801561067e57600080fd5b50600054610277906001600160a01b031681565b83516000906001600160a01b0316158015906106ba575060208501516001600160a01b031615155b6106f45760405162461bcd60e51b8152602060048201526006602482015265181030b2323960d11b60448201526064015b60405180910390fd5b83516101f461ffff9091161180159061071a57506101f4846001602002015161ffff1611155b801561073357506101f4846002602002015161ffff1611155b61076a5760405162461bcd60e51b815260206004820152600860248201526708ccaca40d0d2ced60c31b60448201526064016106eb565b6020830151801561077c575060408301515b156107b55760405162461bcd60e51b81526020600482015260096024820152684275726e2b6c6f636b60b81b60448201526064016106eb565b604083015115806107c95750602086015115155b6108005760405162461bcd60e51b81526020600482015260086024820152672637b1b590323ab960c11b60448201526064016106eb565b60408601516003101561083e5760405162461bcd60e51b81526020600482015260066024820152651314081bdc1d60d21b60448201526064016106eb565b600085858460405161084f90611f36565b61085b9392919061243a565b604051809103906000f080158015610877573d6000803e3d6000fd5b5060048054919250600061088a836124cc565b9091555050600480546001600160a01b03808416600081815260016020908152604080832095909555845161018081018652928352308382015233838601529054845163c45a015560e01b8152945192956060870195919094169363c45a01559382820193929091908290030181865afa15801561090c573d6000803e3d6000fd5b505050506040513d601f19601f8201168201806040525081019061093091906124e5565b6001600160a01b031663c9c653968460008054906101000a90046001600160a01b03166001600160a01b031663ad5c46486040518163ffffffff1660e01b8152600401602060405180830381865afa158015610990573d6000803e3d6000fd5b505050506040513d601f19601f820116820180604052508101906109b491906124e5565b6040518363ffffffff1660e01b81526004016109d1929190612502565b6020604051808303816000875af11580156109f0573d6000803e3d6000fd5b505050506040513d601f19601f82011682018060405250810190610a1491906124e5565b6001600160a01b031681526000602080830182905260408084018390528882015115156060850152880151151560808401528a015160a083015260c082015260e001886002602002015160ff168152602001600081525060026000600454815260200190815260200160002060008201518160000160006101000a8154816001600160a01b0302191690836001600160a01b0316021790555060208201518160010160006101000a8154816001600160a01b0302191690836001600160a01b0316021790555060408201518160020160006101000a8154816001600160a01b0302191690836001600160a01b0316021790555060608201518160030160006101000a8154816001600160a01b0302191690836001600160a01b0316021790555060808201518160030160146101000a81548160ff02191690831515021790555060a08201518160030160156101000a81548160ff02191690831515021790555060c08201518160030160166101000a81548160ff02191690831515021790555060e08201518160030160176101000a81548160ff021916908315150217905550610100820151816004015561012082015181600501556101408201518160060160006101000a81548160ff021916908360ff1602179055506101608201518160070155905050600160036000836001600160a01b03166001600160a01b0316815260200190815260200160002060006101000a81548160ff02191690831515021790555060086000336001600160a01b03166001600160a01b0316815260200190815260200160002060009054906101000a900460ff16610ca05760405162461bcd60e51b8152602060048201526006602482015265139bdd0815d360d21b60448201526064016106eb565b6006546005541015600081610cb55733610cb7565b305b6000549091506001600160a01b031663f305d71983610cd65734610cda565b6006545b85866001600160a01b03166318160ddd6040518163ffffffff1660e01b8152600401602060405180830381865afa158015610d19573d6000803e3d6000fd5b505050506040513d601f19601f82011682018060405250810190610d3d919061251c565b60008087610d4d426101f4612535565b60405160e089901b6001600160e01b03191681526001600160a01b039687166004820152602481019590955260448501939093526064840191909152909216608482015260a481019190915260c40160606040518083038185885af1158015610dba573d6000803e3d6000fd5b50505050506040513d601f19601f82011682018060405250810190610ddf9190612548565b50508651159050610df9578851610df99084903390611b6e565b8851604051637d74e31560e01b815260048101919091526001600160a01b03841660248201523090637d74e31590604401602060405180830381865afa158015610e47573d6000803e3d6000fd5b505050506040513d601f19601f82011682018060405250810190610e6b919061251c565b9998505050505050505050565b610e80611c74565b6040516370a0823160e01b81526000906001600160a01b038416906370a0823190610eaf903090600401612298565b602060405180830381865afa158015610ecc573d6000803e3d6000fd5b505050506040513d601f19601f82011682018060405250810190610ef0919061251c565b905080821115610f125760405162461bcd60e51b81526004016106eb90612576565b8015610fa257826001600160a01b031663a9059cbb610f2f61166c565b6040516001600160e01b031960e084901b1681526001600160a01b039091166004820152602481018590526044016020604051808303816000875af1158015610f7c573d6000803e3d6000fd5b505050506040513d601f19601f82011682018060405250810190610fa0919061259b565b505b505050565b610faf611c74565b600954604051631e317e2360e01b81526001600160a01b0390911690631e317e2390610fdf908490600401612298565b600060405180830381600087803b158015610ff957600080fd5b505af115801561100d573d6000803e3d6000fd5b5050505050565b61101c611c74565b6000811161103c5760405162461bcd60e51b81526004016106eb90612576565b600655565b611049611c74565b600061105482611ca6565b6003810154909150600160a01b900460ff161561109c5760405162461bcd60e51b815260206004820152600660248201526510db1bdcd95960d21b60448201526064016106eb565b600581015460008080831561113e5760646110b88560196125b8565b6110c291906125cf565b925060646110d18560196125b8565b6110db91906125cf565b9150816110e884866125f1565b6110f291906125f1565b6040805186815260208101869052908101849052606081018290529091507fcd992955a1da5c91e26243d771e36f60e49de86f2533845089c90e0641625db49060800160405180910390a15b82156111bb5760028501546040516000916001600160a01b03169085908381818185875af1925050503d8060008114611193576040519150601f19603f3d011682016040523d82523d6000602084013e611198565b606091505b50509050806111b95760405162461bcd60e51b81526004016106eb90612604565b505b81156111e7576111e77358407574f58d9e13847e8f9749d6a86b6b6f41b86111e161166c565b84611b6e565b600954855460008054604080516315ab88c960e31b8152905192946001600160a01b0390811694639cf38f7c94908216939091169163ad5c46489160048083019260209291908290030181865afa158015611246573d6000803e3d6000fd5b505050506040513d601f19601f8201168201806040525081019061126a91906124e5565b6040518363ffffffff1660e01b8152600401611287929190612502565b60408051808303816000875af11580156112a5573d6000803e3d6000fd5b505050506040513d601f19601f820116820180604052508101906112c9919061262b565b91506112d790508282612535565b600560008282546112e89190612535565b909155505050505050505050565b6112fe611c74565b600980546001600160a01b0319166001600160a01b0392909216919091179055565b60008061271061133461ffff8516886125b8565b61133e91906125cf565b9050600061134c82886125f1565b9050600061135a82876125b8565b905060006113688389612535565b905061137481836125cf565b945050505094509492505050565b33600061138e82611ca6565b9050348160050160008282546113a49190612535565b90915550505050565b6113b5611c74565b6113bf6000611d25565b565b60008061144260008054906101000a90046001600160a01b03166001600160a01b031663ad5c46486040518163ffffffff1660e01b8152600401602060405180830381865afa158015611418573d6000803e3d6000fd5b505050506040513d601f19601f8201168201806040525081019061143c91906124e5565b84611d81565b60005460405163d06ca61f60e01b81529192506001600160a01b03169063d06ca61f906114759087908590600401612694565b600060405180830381865afa158015611492573d6000803e3d6000fd5b505050506040513d6000823e601f3d908101601f191682016040526114ba91908101906126b5565b6001815181106114cc576114cc6123b3565b60200260200101519150505b92915050565b60006114e8611e0e565b805490915060ff600160401b82041615906001600160401b031660008115801561150f5750825b90506000826001600160401b0316600114801561152b5750303b155b905081158015611539575080155b156115575760405163f92ee8a960e01b815260040160405180910390fd5b84546001600160401b0319166001178555831561158057845460ff60401b1916600160401b1785555b611588611e37565b61159133611e47565b6000600481905580546001600160a01b03191673ee567fe1712faf6149d80da1e6934e354124cfe31781556005819055600755662386f26fc10000600655831561100d57845460ff60401b19168555604051600181527fc7f505b2f371ae2175ee4913f4499e1f2633a7b5936321eed1cdaeb6115181d29060200160405180910390a15050505050565b611623611c74565b6001600160a01b038116600081815260086020526040808220805460ff19169055517f85d6865cb574673f83db928404cd26f5df2f785a2782c4c6114978fd02ac31b79190a250565b600080611677611e58565b546001600160a01b031692915050565b61168f611c74565b34600560008282546116a19190612535565b9091555050565b60006116b382611ca6565b60028101549091506001600160a01b031633146116fc5760405162461bcd60e51b81526020600482015260076024820152662737ba103232bb60c91b60448201526064016106eb565b600954600382015460028301546040516303d9534f60e01b81526001600160a01b038681166004830152928316602482015290821660448201529116906303d9534f90606401600060405180830381600087803b15801561175c57600080fd5b505af1158015611770573d6000803e3d6000fd5b505050505050565b60008061178483611ca6565b600501549392505050565b611797611c74565b47808211156117b85760405162461bcd60e51b81526004016106eb90612576565b80156118385760006117c861166c565b6001600160a01b03168360405160006040518083038185875af1925050503d8060008114611812576040519150601f19603f3d011682016040523d82523d6000602084013e611817565b606091505b5050905080610fa25760405162461bcd60e51b81526004016106eb90612604565b5050565b60008060008060008060008061185189611ca6565b6006810154600782015460038301546040516370a0823160e01b815260ff9093169b509099509192506001600160a01b03909116906370a082319061189a903090600401612298565b602060405180830381865afa1580156118b7573d6000803e3d6000fd5b505050506040513d601f19601f820116820180604052508101906118db919061251c565b95506000871180156118ed5750864210155b600954604051636744aac560e11b81529196506001600160a01b03169063ce89558a9061191e908c90600401612298565b608060405180830381865afa15801561193b573d6000803e3d6000fd5b505050506040513d601f19601f8201168201806040525081019061195f9190612764565b50999b989a5096989597909695945092505050565b61197c611e7c565b33600061198882611ca6565b6003810154909150600160a81b900460ff16156119d25760405162461bcd60e51b8152602060048201526008602482015267524f4920646f6e6560c01b60448201526064016106eb565b600381018054600160a81b60ff60a81b19821617909155600954825460028401546006850154604051630e6cf40760e01b81526001600160a01b0393841660048201529483166024860152908216604485015260ff1660648401521690630e6cf40790608401600060405180830381600087803b158015611a5257600080fd5b505af1158015611a66573d6000803e3d6000fd5b50508254600284015460405163f2fde38b60e01b81526001600160a01b03928316945063f2fde38b9350611aa09290911690600401612298565b600060405180830381600087803b158015611aba57600080fd5b505af1158015611ace573d6000803e3d6000fd5b5050505050506113bf611eb2565b611ae4611c74565b6001600160a01b038116600081815260086020526040808220805460ff19166001179055517f0d8c07693a4b975c18b1e9c51d678671b6d4ed8d99ab79d018a291baa7d476179190a250565b611b38611c74565b6001600160a01b038116611b62576000604051631e4fbdf760e01b81526004016106eb9190612298565b611b6b81611d25565b50565b611b76611e7c565b60008054604080516315ab88c960e31b815290516001600160a01b0390921692637ff36ab5928592611bf891869163ad5c46489160048083019260209291908290030181865afa158015611bce573d6000803e3d6000fd5b505050506040513d601f19601f82011682018060405250810190611bf291906124e5565b88611d81565b86611c05426101f4612535565b6040518663ffffffff1660e01b8152600401611c2494939291906127b0565b60006040518083038185885af1158015611c42573d6000803e3d6000fd5b50505050506040513d6000823e601f3d908101601f19168201604052611c6b91908101906126b5565b50610fa2611eb2565b33611c7d61166c565b6001600160a01b0316146113bf573360405163118cdaa760e01b81526004016106eb9190612298565b6001600160a01b03811660009081526003602052604081205460ff16611cfd5760405162461bcd60e51b815260206004820152600c60248201526b2737ba102b21103a37b5b2b760a11b60448201526064016106eb565b506001600160a01b031660009081526001602090815260408083205483526002909152902090565b6000611d2f611e58565b80546001600160a01b038481166001600160a01b031983168117845560405193945091169182907f8be0079c531659141344cd1fd0a4f28419497f9722a3daafe3b4186f6b6457e090600090a3505050565b604080516002808252606080830184529260009291906020830190803683370190505090508381600081518110611dba57611dba6123b3565b60200260200101906001600160a01b031690816001600160a01b0316815250508281600181518110611dee57611dee6123b3565b6001600160a01b0390921660209283029190910190910152905092915050565b6000807ff0c57e16840df040f15088dc2f81fe391c3923bec73e23a9662efc9c229c6a006114d8565b611e3f611ec3565b6113bf611ee8565b611e4f611ec3565b611b6b81611ef0565b7f9016d09d72d40fdae2fd8ceac6b6234c7706214fd39c1cd1e609a0528c19930090565b6000611e86611ef8565b805490915060011901611eac57604051633ee5aeb560e01b815260040160405180910390fd5b60029055565b6000611ebc611ef8565b6001905550565b611ecb611f1c565b6113bf57604051631afcd79f60e31b815260040160405180910390fd5b611eb2611ec3565b611b38611ec3565b7f9b779b17422d0df92223018b32b4d1fa46e071723d6817e2486d003becc55f0090565b6000611f26611e0e565b54600160401b900460ff16919050565b6136a1806127e683390190565b634e487b7160e01b600052604160045260246000fd5b604051601f8201601f191681016001600160401b0381118282101715611f8157611f81611f43565b604052919050565b6001600160a01b0381168114611b6b57600080fd5b600082601f830112611faf57600080fd5b611fb96040611f59565b806040840185811115611fcb57600080fd5b845b81811015611fee578035611fe081611f89565b845260209384019301611fcd565b509095945050505050565b803561ffff8116811461200b57600080fd5b919050565b600082601f83011261202157600080fd5b61202b6080611f59565b80608084018581111561203d57600080fd5b845b81811015611fee5761205081611ff9565b84526020938401930161203f565b8015158114611b6b57600080fd5b600082601f83011261207d57600080fd5b6120876060611f59565b80606084018581111561209957600080fd5b845b81811015611fee5780356120ae8161205e565b84526020938401930161209b565b600082601f8301126120cd57600080fd5b6120d76040611f59565b8060408401858111156120e957600080fd5b845b81811015611fee5780356001600160401b0381111561210957600080fd5b8601601f8101881361211a57600080fd5b80356001600160401b0381111561213357612133611f43565b612146601f8201601f1916602001611f59565b81815289602083850101111561215b57600080fd5b816020840160208301376000602083830101528087525050506020840193506020810190506120eb565b60008060008060006101a0868803121561219e57600080fd5b86601f8701126121ad57600080fd5b6121b76060611f59565b8060608801898111156121c957600080fd5b885b818110156121e35780358452602093840193016121cb565b508197506121f18a82611f9e565b96505050506122038760a08801612010565b925061221387610120880161206c565b91506101808601356001600160401b0381111561222f57600080fd5b61223b888289016120bc565b9150509295509295909350565b6000806040838503121561225b57600080fd5b823561226681611f89565b946020939093013593505050565b60006020828403121561228657600080fd5b813561229181611f89565b9392505050565b6001600160a01b0391909116815260200190565b6000602082840312156122be57600080fd5b5035919050565b600080600080608085870312156122db57600080fd5b8435935060208501359250604085013591506122f960608601611ff9565b905092959194509250565b6000806040838503121561231757600080fd5b82359150602083013561232981611f89565b809150509250929050565b6001600160a01b038d811682528c811660208301528b811660408301528a166060820152881515608082015287151560a0820152610180810187151560c083015286151560e0830152856101008301528461012083015261239b61014083018560ff169052565b826101608301529d9c50505050505050505050505050565b634e487b7160e01b600052603260045260246000fd5b600082604081018360005b6002811015611fee5783830387528151805180855260005b81811015612408576020818401810151878301820152016123ec565b506000602082870101526020601f19601f830116860101945050506020820191506020870196506001810190506123d4565b60008185825b60028110156124685781516001600160a01b0316835260209283019290910190600101612440565b505050604082018460005b600481101561249657815161ffff16835260209283019290910190600101612473565b50505060e060c08301526124ad60e08301846123c9565b95945050505050565b634e487b7160e01b600052601160045260246000fd5b6000600182016124de576124de6124b6565b5060010190565b6000602082840312156124f757600080fd5b815161229181611f89565b6001600160a01b0392831681529116602082015260400190565b60006020828403121561252e57600080fd5b5051919050565b808201808211156114d8576114d86124b6565b60008060006060848603121561255d57600080fd5b5050815160208301516040909301519094929350919050565b6020808252600b908201526a125b9d985b1a5908185b5d60aa1b604082015260600190565b6000602082840312156125ad57600080fd5b81516122918161205e565b80820281158282048414176114d8576114d86124b6565b6000826125ec57634e487b7160e01b600052601260045260246000fd5b500490565b818103818111156114d8576114d86124b6565b6020808252600d908201526c151c985b9cd9995c8819985a5b609a1b604082015260600190565b6000806040838503121561263e57600080fd5b505080516020909101519092909150565b600081518084526020840193506020830160005b8281101561268a5781516001600160a01b0316865260209586019590910190600101612663565b5093949350505050565b8281526040602082015260006126ad604083018461264f565b949350505050565b6000602082840312156126c757600080fd5b81516001600160401b038111156126dd57600080fd5b8201601f810184136126ee57600080fd5b80516001600160401b0381111561270757612707611f43565b8060051b61271760208201611f59565b9182526020818401810192908101908784111561273357600080fd5b6020850194505b838510156127595784518083526020958601959093509091019061273a565b979650505050505050565b6000806000806080858703121561277a57600080fd5b84516127858161205e565b60208601516040870151606088015192965090945092506127a581611f89565b939692955090935050565b8481526080602082015260006127c9608083018661264f565b6001600160a01b0394909416604083015250606001529291505056fe60e060405234801561001057600080fd5b506040516136a13803806136a183398101604081905261002f916108f3565b8051602082015133919060036100458382610a20565b5060046100528282610a20565b5050506001600160a01b038116610088576000604051631e4fbdf760e01b815260040161007f9190610ade565b60405180910390fd5b61009181610445565b50600160065582516001600160a01b031615806100b9575060208301516001600160a01b0316155b156100d75760405163d92e233d60e01b815260040160405180910390fd5b6040820151602083015183516101f492916100f191610b08565b6100fb9190610b08565b61ffff16111561011e5760405163cd4e616760e01b815260040160405180910390fd5b600780546001600160a01b0319163390811790915560c0526020838101516001600160a01b031660808190526040805163c45a015560e01b81529051919263c45a0155926004808401938290030181865afa158015610181573d6000803e3d6000fd5b505050506040513d601f19601f820116820180604052508101906101a59190610b28565b6001600160a01b031663c9c65396306080516001600160a01b031663ad5c46486040518163ffffffff1660e01b8152600401602060405180830381865afa1580156101f4573d6000803e3d6000fd5b505050506040513d601f19601f820116820180604052508101906102189190610b28565b6040516001600160e01b031960e085901b1681526001600160a01b039283166004820152911660248201526044016020604051808303816000875af1158015610265573d6000803e3d6000fd5b505050506040513d601f19601f820116820180604052508101906102899190610b28565b600880546001600160a01b039283166001600160a01b0319918216811790925560208087015160098054919095169216919091179092556000908152601582526040808220805460ff199081166001908117909255426016556109c4601781905560188190556019805483169055835160608082018652828252818801929092528885015161ffff908116918601829052600d805465ffffffffffff1916640100000000909302929092176309c409c417909155845160a081018652683635c9adc5dea00000808252620493e098820189905295810187905289830151909116918101829052608001839052600e93909355600f949094556010929092556011556012805490921617905582516103ac906b033b2e3c9fd0803ce8000000610497565b82516103bb90306000196104d1565b82516080516103cd91906000196104d1565b6103e2306080516000196104d160201b60201c565b82516001600160a01b039081166000908152601460205260408082208054600160ff199182168117909255600954851684528284208054821683179055308452919092208054909116909117905560075461043d91166104e3565b505050610b5d565b600580546001600160a01b038381166001600160a01b0319831681179093556040519116919082907f8be0079c531659141344cd1fd0a4f28419497f9722a3daafe3b4186f6b6457e090600090a35050565b6001600160a01b0382166104c157600060405163ec442f0560e01b815260040161007f9190610ade565b6104cd60008383610521565b5050565b6104de838383600161064b565b505050565b6104eb610721565b6001600160a01b038116610515576000604051631e4fbdf760e01b815260040161007f9190610ade565b61051e81610445565b50565b6001600160a01b03831661054c5780600260008282546105419190610b4a565b909155506105be9050565b6001600160a01b0383166000908152602081905260409020548181101561059f5760405163391434e360e21b81526001600160a01b0385166004820152602481018290526044810183905260640161007f565b6001600160a01b03841660009081526020819052604090209082900390555b6001600160a01b0382166105da576002805482900390556105f9565b6001600160a01b03821660009081526020819052604090208054820190555b816001600160a01b0316836001600160a01b03167fddf252ad1be2c89b69c2b068fc378daa952ba7f163c4a11628f55a4df523b3ef8360405161063e91815260200190565b60405180910390a3505050565b6001600160a01b03841661067557600060405163e602df0560e01b815260040161007f9190610ade565b6001600160a01b03831661069f576000604051634a1406b160e11b815260040161007f9190610ade565b6001600160a01b038085166000908152600160209081526040808320938716835292905220829055801561071b57826001600160a01b0316846001600160a01b03167f8c5be1e5ebec7d5bd14f71427d1e84f3dd0314c0f7b2291e5b200ac8c7c3b9258460405161071291815260200190565b60405180910390a35b50505050565b6005546001600160a01b0316331461074e573360405163118cdaa760e01b815260040161007f9190610ade565b565b634e487b7160e01b600052604160045260246000fd5b604051601f8201601f191681016001600160401b038111828210171561078e5761078e610750565b604052919050565b80516001600160a01b03811681146107ad57600080fd5b919050565b600082601f8301126107c357600080fd5b6107cd6080610766565b8060808401858111156107df57600080fd5b845b8181101561080957805161ffff811681146107fb57600080fd5b8452602093840193016107e1565b509095945050505050565b600082601f83011261082557600080fd5b61082f6040610766565b80604084018581111561084157600080fd5b845b818110156108095780516001600160401b0381111561086157600080fd5b8601601f8101881361087257600080fd5b80516001600160401b0381111561088b5761088b610750565b61089e601f8201601f1916602001610766565b8181528960208385010111156108b357600080fd5b60005b828110156108d2576020818501810151838301820152016108b6565b50600060208383010152808752505050602084019350602081019050610843565b600080600060e0848603121561090857600080fd5b84601f85011261091757600080fd5b6109216040610766565b80604086018781111561093357600080fd5b865b818110156109545761094681610796565b845260209384019301610935565b5081955061096288826107b2565b60c0880151909550925050506001600160401b0381111561098257600080fd5b61098e86828701610814565b9150509250925092565b600181811c908216806109ac57607f821691505b6020821081036109cc57634e487b7160e01b600052602260045260246000fd5b50919050565b601f8211156104de57806000526020600020601f840160051c810160208510156109f95750805b601f840160051c820191505b81811015610a195760008155600101610a05565b5050505050565b81516001600160401b03811115610a3957610a39610750565b610a4d81610a478454610998565b846109d2565b6020601f821160018114610a815760008315610a695750848201515b600019600385901b1c1916600184901b178455610a19565b600084815260208120601f198516915b82811015610ab15787850151825560209485019460019092019101610a91565b5084821015610acf5786840151600019600387901b60f8161c191681555b50505050600190811b01905550565b6001600160a01b0391909116815260200190565b634e487b7160e01b600052601160045260246000fd5b61ffff8181168382160190811115610b2257610b22610af2565b92915050565b600060208284031215610b3a57600080fd5b610b4382610796565b9392505050565b80820180821115610b2257610b22610af2565b60805160a05160c051612ae4610bbd600039600081816108a201528181611640015281816118910152611e94015260006106c2015260008181610b0401528181611208015281816120650152818161211001526122770152612ae46000f3fe6080604052600436106102745760003560e01c806302cb580f1461028057806306fdde03146102af578063095ea7b3146102d15780630fff725e146102f1578063162790551461031657806318160ddd1461034057806323b872dd146103555780632c1f521614610375578063313ce567146103a257806331aad8f9146103be5780633c0c4566146104175780633d6cfcd11461043557806342966c681461048957806351bc3c85146104ab5780635342acb4146104c0578063534c6bcb146104f05780635960e46d1461051057806369eb082d146105305780636ff1c9bc1461054657806370a0823114610566578063715018a614610586578063731e15571461059b578063774378e4146105bb57806379cc6790146105d157806383e03b34146105f15780638da5cb5b1461060757806395d89b411461061c5780639a7a23d6146106315780639af1d35a146106515780639d0014b1146106905780639f9e4ac9146106b0578063a335d4ff146106e4578063a39fac12146106fa578063a9059cbb146107b0578063b62496f5146107d0578063ba254e0814610800578063bb1570da14610820578063bc063e1a14610840578063c2d233f414610856578063c788e83814610870578063d0c258b014610890578063d52c2b80146108c4578063d71fdd00146108e0578063d8b9182b14610905578063d9cee46d1461091a578063da0321cd14610939578063db8d55f11461099f578063dd62ed3e14610a2f578063df8408fe14610a4f578063e1a606fa14610a6f578063e35edac514610a86578063ecda10f514610a9c578063f2fde38b14610ab2578063f8162d7114610ad2578063f887ea4014610af257600080fd5b3661027b57005b600080fd5b34801561028c57600080fd5b5060135461029a9060ff1681565b60405190151581526020015b60405180910390f35b3480156102bb57600080fd5b506102c4610b26565b6040516102a69190612631565b3480156102dd57600080fd5b5061029a6102ec366004612694565b610bb8565b3480156102fd57600080fd5b5061030862030d4081565b6040519081526020016102a6565b34801561032257600080fd5b5061029a6103313660046126c0565b6001600160a01b03163b151590565b34801561034c57600080fd5b50600254610308565b34801561036157600080fd5b5061029a6103703660046126dd565b610bd2565b34801561038157600080fd5b50600c54610395906001600160a01b031681565b6040516102a6919061271e565b3480156103ae57600080fd5b50604051601281526020016102a6565b3480156103ca57600080fd5b506103d3610bf6565b6040516102a69190600060a0820190508251825260208301516020830152604083015160408301526060830151606083015260808301511515608083015292915050565b34801561042357600080fd5b506007546001600160a01b0316610395565b34801561044157600080fd5b50600e54600f5460105460115460125461045f949392919060ff1685565b6040805195865260208601949094529284019190915260608301521515608082015260a0016102a6565b34801561049557600080fd5b506104a96104a4366004612732565b610c64565b005b3480156104b757600080fd5b506104a9610c71565b3480156104cc57600080fd5b5061029a6104db3660046126c0565b60146020526000908152604090205460ff1681565b3480156104fc57600080fd5b506104a961050b366004612762565b610c83565b34801561051c57600080fd5b506104a961052b366004612732565b610dfe565b34801561053c57600080fd5b5061030861038481565b34801561055257600080fd5b506104a96105613660046126c0565b610e3c565b34801561057257600080fd5b506103086105813660046126c0565b610ef6565b34801561059257600080fd5b506104a9610f11565b3480156105a757600080fd5b506104a96105b63660046127b5565b610f23565b3480156105c757600080fd5b5061030860185481565b3480156105dd57600080fd5b506104a96105ec366004612694565b610f3e565b3480156105fd57600080fd5b5061030860175481565b34801561061357600080fd5b50610395610f57565b34801561062857600080fd5b506102c4610f66565b34801561063d57600080fd5b506104a961064c3660046127d0565b610f75565b34801561065d57600080fd5b50600d546106819061ffff80821691620100008104821691600160201b9091041683565b6040516102a693929190612805565b34801561069c57600080fd5b506104a96106ab366004612732565b610fa8565b3480156106bc57600080fd5b506103957f000000000000000000000000000000000000000000000000000000000000000081565b3480156106f057600080fd5b5061030861271081565b34801561070657600080fd5b5061076d60408051608081018252600080825260208201819052918101829052606081019190915250604080516080810182526008546001600160a01b03908116825260095481166020830152600a54811692820192909252600b54909116606082015290565b6040516102a6919081516001600160a01b039081168252602080840151821690830152604080840151821690830152606092830151169181019190915260800190565b3480156107bc57600080fd5b5061029a6107cb366004612694565b610fd6565b3480156107dc57600080fd5b5061029a6107eb3660046126c0565b60156020526000908152604090205460ff1681565b34801561080c57600080fd5b50600754610395906001600160a01b031681565b34801561082c57600080fd5b506104a961083b366004612732565b610fe4565b34801561084c57600080fd5b506103086101f481565b34801561086257600080fd5b5060195461029a9060ff1681565b34801561087c57600080fd5b506104a961088b366004612823565b611014565b34801561089c57600080fd5b506103957f000000000000000000000000000000000000000000000000000000000000000081565b3480156108d057600080fd5b506103086714d1120d7b16000081565b3480156108ec57600080fd5b506108f561139e565b6040516102a69493929190612865565b34801561091157600080fd5b506104a961141f565b34801561092657600080fd5b5060135461029a90610100900460ff1681565b34801561094557600080fd5b50600854600954600a54600b5461096c936001600160a01b03908116938116928116911684565b604080516001600160a01b03958616815293851660208501529184169183019190915290911660608201526080016102a6565b3480156109ab57600080fd5b50610a0260408051606081018252600080825260208201819052918101919091525060408051606081018252600d5461ffff808216835262010000820481166020840152600160201b909104169181019190915290565b60408051825161ffff908116825260208085015182169083015292820151909216908201526060016102a6565b348015610a3b57600080fd5b50610308610a4a366004612880565b611427565b348015610a5b57600080fd5b506104a9610a6a3660046127d0565b611452565b348015610a7b57600080fd5b506103086207a12081565b348015610a9257600080fd5b506103086109c481565b348015610aa857600080fd5b5061030860165481565b348015610abe57600080fd5b506104a9610acd3660046126c0565b6114b9565b348015610ade57600080fd5b506104a9610aed366004612732565b6114f4565b348015610afe57600080fd5b506103957f000000000000000000000000000000000000000000000000000000000000000081565b606060038054610b35906128b9565b80601f0160208091040260200160405190810160405280929190818152602001828054610b61906128b9565b8015610bae5780601f10610b8357610100808354040283529160200191610bae565b820191906000526020600020905b815481529060010190602001808311610b9157829003601f168201915b5050505050905090565b600033610bc6818585611536565b60019150505b92915050565b600033610be0858285611548565b610beb85858561159c565b506001949350505050565b610c2a6040518060a00160405280600081526020016000815260200160008152602001600081526020016000151581525090565b506040805160a081018252600e548152600f54602082015260105491810191909152601154606082015260125460ff161515608082015290565b610c6e338261174f565b50565b610c79611785565b610c816117b7565b565b610c8b611785565b610384601654610c9b9190612909565b4210610cdd576017548361ffff161180610cba57506018548261ffff16115b15610cd85760405163cd4e616760e01b815260040160405180910390fd5b610d46565b60405162461bcd60e51b815260206004820152603360248201527f4d616e75616c20746178206368616e676573206e6f7420616c6c6f77656420646044820152721d5c9a5b99c81b185d5b98da081c195c9a5bd9606a1b60648201526084015b60405180910390fd5b6101f48361ffff161180610d5f57506101f48261ffff16115b80610d6f57506101f48161ffff16115b15610d8d5760405163cd4e616760e01b815260040160405180910390fd5b61ffff80841660178190558382166018819055600d8054938516600160201b0261ffff60201b196201000090930263ffffffff199095169093179390931716179055604051600080516020612a8f83398151915290610df190859085908590612805565b60405180910390a1505050565b610e06611785565b62030d40811080610e1957506207a12081115b15610e3757604051635c974e3d60e11b815260040160405180910390fd5b600f55565b610e44611785565b6001600160a01b038116610e6d57610c6e47610e5e610f57565b6001600160a01b031690611987565b610c6e610e78610f57565b6040516370a0823160e01b81526001600160a01b038416906370a0823190610ea490309060040161271e565b602060405180830381865afa158015610ec1573d6000803e3d6000fd5b505050506040513d601f19601f82011682018060405250810190610ee5919061291c565b6001600160a01b0384169190611a17565b6001600160a01b031660009081526020819052604090205490565b610f19611785565b610c816000611a6f565b610f2b611785565b6012805460ff1916911515919091179055565b610f49823383611548565b610f53828261174f565b5050565b6005546001600160a01b031690565b606060048054610b35906128b9565b610f7d611785565b6001600160a01b03919091166000908152601560205260409020805460ff1916911515919091179055565b610fb0611785565b80600003610fd157604051635c974e3d60e11b815260040160405180910390fd5b600e55565b600033610bc681858561159c565b610fec611785565b6103e881111561100f57604051635c974e3d60e11b815260040160405180910390fd5b601155565b61101c611785565b826001600160a01b0381166110445760405163d92e233d60e01b815260040160405180910390fd5b816001600160a01b03811661106c5760405163d92e233d60e01b815260040160405180910390fd5b61138884111561108f57604051635c974e3d60e11b815260040160405180910390fd5b600c80546001600160a01b038088166001600160a01b03199283168117909355600b805491871691909216179055601085905560405163031e79db60e41b81526331e79db0906110e390889060040161271e565b600060405180830381600087803b1580156110fd57600080fd5b505af1158015611111573d6000803e3d6000fd5b5050600c5460405163031e79db60e41b81526001600160a01b0390911692506331e79db0915061114590309060040161271e565b600060405180830381600087803b15801561115f57600080fd5b505af1158015611173573d6000803e3d6000fd5b5050600c546001600160a01b031691506331e79db09050611192610f57565b6040518263ffffffff1660e01b81526004016111ae919061271e565b600060405180830381600087803b1580156111c857600080fd5b505af11580156111dc573d6000803e3d6000fd5b5050600c5460405163031e79db60e41b81526001600160a01b0390911692506331e79db09150611230907f00000000000000000000000000000000000000000000000000000000000000009060040161271e565b600060405180830381600087803b15801561124a57600080fd5b505af115801561125e573d6000803e3d6000fd5b5050600c5460085460405163031e79db60e41b81526001600160a01b0392831694506331e79db09350611297929091169060040161271e565b600060405180830381600087803b1580156112b157600080fd5b505af11580156112c5573d6000803e3d6000fd5b5050506001600160a01b03808716600090815260146020908152604091829020805460ff19166001179055600c54825163d1af0c7d60e01b815292519316935063d1af0c7d926004808401938290030181865afa15801561132a573d6000803e3d6000fd5b505050506040513d601f19601f8201168201806040525081019061134e9190612935565b600a80546001600160a01b0319166001600160a01b03928316179055604051908616907ff721df2e62c8bc1e5e8f01fcc46ad9f2db4b55d291e7e3e3f307df16f17fbb4890600090a25050505050565b600080600080600042905060006103846016546113bb9190612909565b90508082106113ea575050601754601854600d549195509350600160201b900461ffff16915060009050611419565b600d546109c4908190600160201b900461ffff166114088585612952565b92985090965061ffff169450925050505b90919293565b610c81611785565b6001600160a01b03918216600090815260016020908152604080832093909416825291909152205490565b61145a611785565b6001600160a01b038216600081815260146020908152604091829020805460ff191685151590811790915591519182527fd5144d2a6c8ff9b87b7a40852df5102cab2ce561c06b56cc6fe7ccf1fa7f8c2d910160405180910390a25050565b6114c1611785565b6001600160a01b0381166114eb576000604051631e4fbdf760e01b8152600401610d3d919061271e565b610c6e81611a6f565b6114fc611785565b62030d4081108061150f57506207a12081115b1561152d57604051635c974e3d60e11b815260040160405180910390fd5b610c6e81611ac1565b6115438383836001611b79565b505050565b60006115548484611427565b9050600019811015611596578181101561158757828183604051637dc7a0d960e11b8152600401610d3d93929190612965565b61159684848484036000611b79565b50505050565b60135462010000900460ff16156115b857611543838383611c40565b6115c28383611c9f565b156115cf576115cf6117b7565b6115da838383611d56565b6115e48383611d99565b60125460ff1680156115ff575060135462010000900460ff16155b80156116155750600c546001600160a01b031615155b1561162657600f5461162690611ac1565b60405163a217c37760e01b81526000906001600160a01b037f0000000000000000000000000000000000000000000000000000000000000000169063a217c3779061167590309060040161271e565b602060405180830381865afa158015611692573d6000803e3d6000fd5b505050506040513d601f19601f820116820180604052508101906116b6919061291c565b90506714d1120d7b16000081101580156116d3575060135460ff16155b15611596576013805460ff191660011790556116ed611e7d565b3063f2fde38b6116fb610f57565b6040518263ffffffff1660e01b8152600401611717919061271e565b600060405180830381600087803b15801561173157600080fd5b505af1158015611745573d6000803e3d6000fd5b5050505050505050565b6001600160a01b038216611779576000604051634b637e8f60e11b8152600401610d3d919061271e565b610f5382600083611ef7565b3361178e610f57565b6001600160a01b031614610c81573360405163118cdaa760e01b8152600401610d3d919061271e565b60135462010000900460ff16156117e1576040516321a11a0f60e11b815260040160405180910390fd5b6013805462ff000019166201000017905560006117fd30610ef6565b90506000612710600e60030154836118159190612986565b61181f919061299d565b90506000612710600e60020154846118379190612986565b611841919061299d565b90506000816118508486612952565b61185a9190612952565b9050801561193d57600954479061187b9083906001600160a01b031661200e565b4760006118888383612952565b905060008190507f00000000000000000000000000000000000000000000000000000000000000006001600160a01b0316636aaf7fe2826040518263ffffffff1660e01b81526004016000604051808303818588803b1580156118ea57600080fd5b505af11580156118fe573d6000803e3d6000fd5b50505050506714d1120d7b160000811015801561191e575060135460ff16155b15611938576013805460ff19166001179055611938611e7d565b505050505b821561194d5761194d308461174f565b6000821180156119675750600c546001600160a01b031615155b15611975576119758261219d565b50506013805462ff0000191690555050565b804710156119b15760405163cf47918160e01b815247600482015260248101829052604401610d3d565b600080836001600160a01b03168360405160006040518083038185875af1925050503d80600081146119ff576040519150601f19603f3d011682016040523d82523d6000602084013e611a04565b606091505b509150915081611596576115968161242d565b61154383846001600160a01b031663a9059cbb8585604051602401611a3d9291906129bf565b604051602081830303815290604052915060e01b6020820180516001600160e01b038381831617835250505050612455565b600580546001600160a01b038381166001600160a01b0319831681179093556040519116919082907f8be0079c531659141344cd1fd0a4f28419497f9722a3daafe3b4186f6b6457e090600090a35050565b600c546040516001624d3b8760e01b03198152600481018390526001600160a01b039091169063ffb2c479906024016060604051808303816000875af1925050508015611b2b575060408051601f3d908101601f19168201909252611b28918101906129d8565b60015b15610c6e5760405132906001907fc864333d6121033635ab41b29ae52f10a22cf4438c3e4f1c4c68518feb2f8a9890611b6b908790879087908b90612865565b60405180910390a350505050565b6001600160a01b038416611ba357600060405163e602df0560e01b8152600401610d3d919061271e565b6001600160a01b038316611bcd576000604051634a1406b160e11b8152600401610d3d919061271e565b6001600160a01b038085166000908152600160209081526040808320938716835292905220829055801561159657826001600160a01b0316846001600160a01b03167f8c5be1e5ebec7d5bd14f71427d1e84f3dd0314c0f7b2291e5b200ac8c7c3b92584604051611b6b91815260200190565b6001600160a01b038316611c6a576000604051634b637e8f60e11b8152600401610d3d919061271e565b6001600160a01b038216611c9457600060405163ec442f0560e01b8152600401610d3d919061271e565b611543838383611ef7565b600080611cab30610ef6565b600e549091508110801590611cc9575060135462010000900460ff16155b8015611ce357506008546001600160a01b03858116911614155b8015611d045750600854600090611d02906001600160a01b0316610ef6565b115b8015611d2957506001600160a01b03841660009081526014602052604090205460ff16155b8015611d4e57506001600160a01b03831660009081526014602052604090205460ff16155b949350505050565b6000611d6284846124bd565b15611d8557611d72848484612506565b90508015611d8557611d85843083611c40565b6115968484611d948486612952565b611c40565b600c546001600160a01b0316611dad575050565b600c546001600160a01b031663e30443bc83611dc881610ef6565b6040518363ffffffff1660e01b8152600401611de59291906129bf565b600060405180830381600087803b158015611dff57600080fd5b505af1925050508015611e10575060015b50600c546001600160a01b031663e30443bc82611e2c81610ef6565b6040518363ffffffff1660e01b8152600401611e499291906129bf565b600060405180830381600087803b158015611e6357600080fd5b505af1925050508015611e74575060015b15610f53575050565b604051635f25569760e01b81526001600160a01b037f00000000000000000000000000000000000000000000000000000000000000001690635f25569790611ec990309060040161271e565b600060405180830381600087803b158015611ee357600080fd5b505af1158015611596573d6000803e3d6000fd5b6001600160a01b038316611f22578060026000828254611f179190612909565b90915550611f819050565b6001600160a01b03831660009081526020819052604090205481811015611f625783818360405163391434e360e21b8152600401610d3d93929190612965565b6001600160a01b03841660009081526020819052604090209082900390555b6001600160a01b038216611f9d57600280548290039055611fbc565b6001600160a01b03821660009081526020819052604090208054820190555b816001600160a01b0316836001600160a01b03167fddf252ad1be2c89b69c2b068fc378daa952ba7f163c4a11628f55a4df523b3ef8360405161200191815260200190565b60405180910390a3505050565b604080516002808252606082018352600092602083019080368337019050509050308160008151811061204357612043612a06565b60200260200101906001600160a01b031690816001600160a01b0316815250507f00000000000000000000000000000000000000000000000000000000000000006001600160a01b031663ad5c46486040518163ffffffff1660e01b8152600401602060405180830381865afa1580156120c1573d6000803e3d6000fd5b505050506040513d601f19601f820116820180604052508101906120e59190612935565b816001815181106120f8576120f8612a06565b6001600160a01b0392831660209182029290920101527f00000000000000000000000000000000000000000000000000000000000000001663791ac94784600084866121464261012c612909565b6040518663ffffffff1660e01b8152600401612166959493929190612a1c565b600060405180830381600087803b15801561218057600080fd5b505af1158015612194573d6000803e3d6000fd5b50505050505050565b600a546001600160a01b031615806121be5750600b546001600160a01b0316155b156121c65750565b604080516003808252608082019092526000916020820160608036833701905050905030816000815181106121fd576121fd612a06565b6001600160a01b039283166020918202929092010152600b5482519116908290600190811061222e5761222e612a06565b6001600160a01b039283166020918202929092010152600a5482519116908290600290811061225f5761225f612a06565b6001600160a01b0392831660209182029290920101527f000000000000000000000000000000000000000000000000000000000000000016635c11d79583600084306122ad4261012c612909565b6040518663ffffffff1660e01b81526004016122cd959493929190612a1c565b600060405180830381600087803b1580156122e757600080fd5b505af11580156122fb573d6000803e3d6000fd5b5050600a546040516370a0823160e01b8152600093506001600160a01b0390911691506370a082319061233290309060040161271e565b602060405180830381865afa15801561234f573d6000803e3d6000fd5b505050506040513d601f19601f82011682018060405250810190612373919061291c565b9050801561154357600c54600a54612398916001600160a01b03918216911683611a17565b600c54604051633243c79160e01b8152600481018390526001600160a01b0390911690633243c79190602401600060405180830381600087803b1580156123de57600080fd5b505af11580156123f2573d6000803e3d6000fd5b505060408051868152602081018590527f80195cc573b02cc48460cbca6e6e4cc85ddb91959d946e1c3025ea3d87942dc39350019050610df1565b80511561243c57805160208201fd5b60405163d6bda27560e01b815260040160405180910390fd5b600080602060008451602086016000885af180612478576040513d6000823e3d81fd5b50506000513d9150811561249057806001141561249d565b6001600160a01b0384163b155b156115965783604051635274afe760e01b8152600401610d3d919061271e565b6001600160a01b03821660009081526014602052604081205460ff161580156124ff57506001600160a01b03821660009081526014602052604090205460ff16155b9392505050565b60006125106125a3565b6001600160a01b03841660009081526015602052604081205460ff161561253a5750601754612574565b6001600160a01b03841660009081526015602052604090205460ff16156125645750601854612574565b50600d54600160201b900461ffff165b6000811161258357600061259a565b6127106125908285612986565b61259a919061299d565b95945050505050565b60195460ff161580156125c557506103846016546125c19190612909565b4210155b15610c81576019805460ff191660011790556101f460178190556018819055600d80546301f401f463ffffffff199091161790819055604051600080516020612a8f833981519152926126279290918291600160201b900461ffff1690612805565b60405180910390a1565b602081526000825180602084015260005b8181101561265f5760208186018101516040868401015201612642565b506000604082850101526040601f19601f83011684010191505092915050565b6001600160a01b0381168114610c6e57600080fd5b600080604083850312156126a757600080fd5b82356126b28161267f565b946020939093013593505050565b6000602082840312156126d257600080fd5b81356124ff8161267f565b6000806000606084860312156126f257600080fd5b83356126fd8161267f565b9250602084013561270d8161267f565b929592945050506040919091013590565b6001600160a01b0391909116815260200190565b60006020828403121561274457600080fd5b5035919050565b803561ffff8116811461275d57600080fd5b919050565b60008060006060848603121561277757600080fd5b6127808461274b565b925061278e6020850161274b565b915061279c6040850161274b565b90509250925092565b8035801515811461275d57600080fd5b6000602082840312156127c757600080fd5b6124ff826127a5565b600080604083850312156127e357600080fd5b82356127ee8161267f565b91506127fc602084016127a5565b90509250929050565b61ffff93841681529183166020830152909116604082015260600190565b60008060006060848603121561283857600080fd5b83356128438161267f565b925060208401359150604084013561285a8161267f565b809150509250925092565b93845260208401929092526040830152606082015260800190565b6000806040838503121561289357600080fd5b823561289e8161267f565b915060208301356128ae8161267f565b809150509250929050565b600181811c908216806128cd57607f821691505b6020821081036128ed57634e487b7160e01b600052602260045260246000fd5b50919050565b634e487b7160e01b600052601160045260246000fd5b80820180821115610bcc57610bcc6128f3565b60006020828403121561292e57600080fd5b5051919050565b60006020828403121561294757600080fd5b81516124ff8161267f565b81810381811115610bcc57610bcc6128f3565b6001600160a01b039390931683526020830191909152604082015260600190565b8082028115828204841417610bcc57610bcc6128f3565b6000826129ba57634e487b7160e01b600052601260045260246000fd5b500490565b6001600160a01b03929092168252602082015260400190565b6000806000606084860312156129ed57600080fd5b5050815160208301516040909301519094929350919050565b634e487b7160e01b600052603260045260246000fd5b600060a0820187835286602084015260a0604084015280865180835260c08501915060208801925060005b81811015612a6e5783516001600160a01b0316835260209384019390920191600101612a47565b50506001600160a01b03959095166060840152505060800152939250505056feb3ef341b591e573ddca7176a74bb92c8e453cce6d6885fcd6a544c2385d3811fa2646970667358221220b80cc1495e8298557b7c67bf9a250412ded073699378cf817a66fc6d11b471ce64736f6c634300081e0033a264697066735822122018192365564797fbfff979b54a8ccc8f482873db5c86cc65fbadf53753c19adf64736f6c634300081e0033",
  "linkReferences": {},
  "deployedLinkReferences": {}
}